{
  "address": "0x6a247370CE1D82af104987cB22046eC554b95cD3",
  "abi": [
    {
      "inputs": [
        {
          "internalType": "address",
          "name": "_pangolinRouter",
          "type": "address"
        },
        {
          "internalType": "address",
          "name": "_joeFactory",
          "type": "address"
        }
      ],
      "stateMutability": "nonpayable",
      "type": "constructor"
    },
    {
      "inputs": [
        {
          "internalType": "address",
          "name": "_sender",
          "type": "address"
        },
        {
          "internalType": "uint256",
          "name": "_amount0",
          "type": "uint256"
        },
        {
          "internalType": "uint256",
          "name": "_amount1",
          "type": "uint256"
        },
        {
          "internalType": "bytes",
          "name": "_data",
          "type": "bytes"
        }
      ],
      "name": "joeCall",
      "outputs": [],
      "stateMutability": "nonpayable",
      "type": "function"
    }
  ],
  "transactionHash": "0xb11caa4cc28e88ab94890b6d300a6b94ce202dc4ab215b044009a360d9a009f6",
  "args": [
    "0xE54Ca86531e17Ef3616d22Ca28b0D458b6C89106",
    "0x9Ad6C38BE94206cA50bb0d90783181662f0Cfa10"
  ],
  "solcInputHash": "933d0950148b6b3ec1acb6614cee1c55",
  "bytecode": "0x60c060405234801561001057600080fd5b50604051610f30380380610f308339818101604052604081101561003357600080fd5b5080516020909101516001600160601b0319606091821b811660805291901b1660a05260805160601c60a05160601c610ea76100896000398061033a52806104845250806101e052806103d45250610ea76000f3fe608060405234801561001057600080fd5b506004361061002b5760003560e01c8063ee22dd8714610030575b600080fd5b6100bc6004803603608081101561004657600080fd5b6001600160a01b03823516916020810135916040820135919081019060808101606082013564010000000081111561007d57600080fd5b82018360208201111561008f57600080fd5b803590602001918460018302840111640100000000831117156100b157600080fd5b5090925090506100be565b005b6040805160028082526060808301845292602083019080368337019050509050600085156100ec57856100ee565b845b90506000336001600160a01b0316630dfe16816040518163ffffffff1660e01b815260040160206040518083038186803b15801561012b57600080fd5b505afa15801561013f573d6000803e3d6000fd5b505050506040513d602081101561015557600080fd5b5051604080517fd21220a70000000000000000000000000000000000000000000000000000000081529051919250600091339163d21220a7916004808301926020929190829003018186803b1580156101ad57600080fd5b505afa1580156101c1573d6000803e3d6000fd5b505050506040513d60208110156101d757600080fd5b505190506102067f00000000000000000000000000000000000000000000000000000000000000008383610671565b6001600160a01b0316336001600160a01b03161461026b576040805162461bcd60e51b815260206004820152600c60248201527f556e617574686f72697a65640000000000000000000000000000000000000000604482015290519081900360640190fd5b871580610276575086155b6102b15760405162461bcd60e51b815260040180806020018281038252602c815260200180610e46602c913960400191505060405180910390fd5b87156102bd57806102bf565b815b846000815181106102cc57fe5b6001600160a01b039092166020928302919091019091015287156102f057816102f2565b805b846001815181106102ff57fe5b6001600160a01b0390921660209283029190910190910152600088156103255782610327565b815b9050806001600160a01b031663095ea7b37f0000000000000000000000000000000000000000000000000000000000000000866040518363ffffffff1660e01b815260040180836001600160a01b0316815260200182815260200192505050602060405180830381600087803b1580156103a057600080fd5b505af11580156103b4573d6000803e3d6000fd5b505050506040513d60208110156103ca57600080fd5b50600090506103fa7f0000000000000000000000000000000000000000000000000000000000000000868861075c565b60008151811061040657fe5b602002602001015190508960001461041e5783610420565b825b8660008151811061042d57fe5b6001600160a01b039092166020928302919091019091015289156104515782610453565b835b8660018151811061046057fe5b60200260200101906001600160a01b031690816001600160a01b03168152505060007f00000000000000000000000000000000000000000000000000000000000000006001600160a01b03166338ed173987848a30639a7ec8006040518663ffffffff1660e01b81526004018086815260200185815260200180602001846001600160a01b03168152602001838152602001828103825285818151815260200191508051906020019060200280838360005b8381101561052a578181015183820152602001610512565b505050509050019650505050505050600060405180830381600087803b15801561055357600080fd5b505af1158015610567573d6000803e3d6000fd5b505050506040513d6000823e601f3d908101601f19168201604052602081101561059057600080fd5b81019080805160405193929190846401000000008211156105b057600080fd5b9083019060208201858111156105c557600080fd5b82518660208202830111640100000000821117156105e257600080fd5b82525081516020918201928201910280838360005b8381101561060f5781810151838201526020016105f7565b5050505090500160405250505060018151811061062857fe5b6020026020010151905081811161063b57fe5b8a156106475783610649565b845b92506106568333846108a9565b610663838d8484036108a9565b505050505050505050505050565b60008060006106808585610a41565b604080517fffffffffffffffffffffffffffffffffffffffff000000000000000000000000606094851b811660208084019190915293851b81166034830152825160288184030181526048830184528051908501207fff0000000000000000000000000000000000000000000000000000000000000060688401529a90941b9093166069840152607d8301989098527f0bbca9af0511ad1a1da383135cf3a8d2ac620e549ef9f6ae3a4c33c2fed0af91609d808401919091528851808403909101815260bd909201909752805196019590952095945050505050565b60606002825110156107b5576040805162461bcd60e51b815260206004820152601860248201527f4a6f654c6962726172793a20494e56414c49445f504154480000000000000000604482015290519081900360640190fd5b815167ffffffffffffffff811180156107cd57600080fd5b506040519080825280602002602001820160405280156107f7578160200160208202803683370190505b509050828160018351038151811061080b57fe5b60209081029190910101528151600019015b80156108a15760008061085a8786600186038151811061083957fe5b602002602001015187868151811061084d57fe5b6020026020010151610b35565b9150915061087c84848151811061086d57fe5b60200260200101518383610c03565b84600185038151811061088b57fe5b602090810291909101015250506000190161081d565b509392505050565b604080516001600160a01b038481166024830152604480830185905283518084039091018152606490920183526020820180517bffffffffffffffffffffffffffffffffffffffffffffffffffffffff167fa9059cbb00000000000000000000000000000000000000000000000000000000178152925182516000946060949389169392918291908083835b602083106109545780518252601f199092019160209182019101610935565b6001836020036101000a0380198251168184511680821785525050505050509050019150506000604051808303816000865af19150503d80600081146109b6576040519150601f19603f3d011682016040523d82523d6000602084013e6109bb565b606091505b50915091508180156109e95750805115806109e957508080602001905160208110156109e657600080fd5b50515b610a3a576040805162461bcd60e51b815260206004820152601f60248201527f5472616e7366657248656c7065723a205452414e534645525f4641494c454400604482015290519081900360640190fd5b5050505050565b600080826001600160a01b0316846001600160a01b03161415610aab576040805162461bcd60e51b815260206004820152601f60248201527f4a6f654c6962726172793a204944454e544943414c5f41444452455353455300604482015290519081900360640190fd5b826001600160a01b0316846001600160a01b031610610acb578284610ace565b83835b90925090506001600160a01b038216610b2e576040805162461bcd60e51b815260206004820152601860248201527f4a6f654c6962726172793a205a45524f5f414444524553530000000000000000604482015290519081900360640190fd5b9250929050565b6000806000610b448585610a41565b509050600080610b55888888610671565b6001600160a01b0316630902f1ac6040518163ffffffff1660e01b815260040160606040518083038186803b158015610b8d57600080fd5b505afa158015610ba1573d6000803e3d6000fd5b505050506040513d6060811015610bb757600080fd5b5080516020909101516dffffffffffffffffffffffffffff91821693501690506001600160a01b0387811690841614610bf1578082610bf4565b81815b90999098509650505050505050565b6000808411610c435760405162461bcd60e51b8152600401808060200182810382526026815260200180610e206026913960400191505060405180910390fd5b600083118015610c535750600082115b610c8e5760405162461bcd60e51b8152600401808060200182810382526022815260200180610dfe6022913960400191505060405180910390fd5b6000610ca66103e8610ca08688610cdb565b90610cdb565b90506000610cba6103e5610ca08689610d4d565b9050610cd16001828481610cca57fe5b0490610da5565b9695505050505050565b6000811580610cf657505080820282828281610cf357fe5b04145b610d47576040805162461bcd60e51b815260206004820152601460248201527f64732d6d6174682d6d756c2d6f766572666c6f77000000000000000000000000604482015290519081900360640190fd5b92915050565b80820382811115610d47576040805162461bcd60e51b815260206004820152601560248201527f64732d6d6174682d7375622d756e646572666c6f770000000000000000000000604482015290519081900360640190fd5b80820182811015610d47576040805162461bcd60e51b815260206004820152601460248201527f64732d6d6174682d6164642d6f766572666c6f77000000000000000000000000604482015290519081900360640190fdfe4a6f654c6962726172793a20494e53554646494349454e545f4c49515549444954594a6f654c6962726172793a20494e53554646494349454e545f4f55545055545f414d4f554e54466c617368537761704a6f6550616e676f3a204f4e455f4d414e4441544f52595f5a45524f5f414d4f554e54a264697066735822122069a88af247eff477327782aacdfac25ef14c93645d2ba837319437b04449a38464736f6c634300060c0033",
  "devdoc": {
    "kind": "dev",
    "methods": {},
    "version": 1
  },
  "userdoc": {
    "kind": "user",
    "methods": {},
    "version": 1
  },
  "storageLayout": {
    "storage": [],
    "types": null
  }
}