{
  "address": "0xB7f8BC63BbcaD18155201308C8f3540b07f84F5e",
  "abi": [
    {
      "inputs": [
        {
          "internalType": "address",
          "name": "_sushiRouter",
          "type": "address"
        },
        {
          "internalType": "address",
          "name": "_pangolinFactory",
          "type": "address"
        }
      ],
      "stateMutability": "nonpayable",
      "type": "constructor"
    },
    {
      "inputs": [
        {
          "internalType": "address",
          "name": "_sender",
          "type": "address"
        },
        {
          "internalType": "uint256",
          "name": "_amount0",
          "type": "uint256"
        },
        {
          "internalType": "uint256",
          "name": "_amount1",
          "type": "uint256"
        },
        {
          "internalType": "bytes",
          "name": "_data",
          "type": "bytes"
        }
      ],
      "name": "pangolinCall",
      "outputs": [],
      "stateMutability": "nonpayable",
      "type": "function"
    }
  ],
  "transactionHash": "0x6cf707635cfa5f82b28e6a77e8d8044f91ab47fe1b6fc1c9715a9d3d71c3085d",
  "args": [
    "0xa513E6E4b8f2a923D98304ec87F64353C4D5C853",
    "0x5FC8d32690cc91D4c39d9d3abcBD16989F875707"
  ],
  "solcInputHash": "9c1b967fdbe6f8d3531d4f23a366e438",
  "bytecode": "0x60c060405234801561001057600080fd5b506040516118f93803806118f98339818101604052604081101561003357600080fd5b8101908080519060200190929190805190602001909291905050508073ffffffffffffffffffffffffffffffffffffffff1660808173ffffffffffffffffffffffffffffffffffffffff1660601b815250508173ffffffffffffffffffffffffffffffffffffffff1660a08173ffffffffffffffffffffffffffffffffffffffff1660601b81525050505060805160601c60a05160601c6118086100f16000398061051a528061061052508061029c52806105d052506118086000f3fe608060405234801561001057600080fd5b506004361061002b5760003560e01c8063f8890f8e14610030575b600080fd5b6100db6004803603608081101561004657600080fd5b81019080803573ffffffffffffffffffffffffffffffffffffffff16906020019092919080359060200190929190803590602001909291908035906020019064010000000081111561009757600080fd5b8201836020820111156100a957600080fd5b803590602001918460018302840111640100000000831117156100cb57600080fd5b90919293919293905050506100dd565b005b60008590506060600267ffffffffffffffff811180156100fc57600080fd5b5060405190808252806020026020018201604052801561012b5781602001602082028036833780820191505090505b5090506060600267ffffffffffffffff8111801561014857600080fd5b506040519080825280602002602001820160405280156101775781602001602082028036833780820191505090505b5090506000808814610189578761018b565b865b905060003373ffffffffffffffffffffffffffffffffffffffff16630dfe16816040518163ffffffff1660e01b815260040160206040518083038186803b1580156101d557600080fd5b505afa1580156101e9573d6000803e3d6000fd5b505050506040513d60208110156101ff57600080fd5b8101908080519060200190929190505050905060003373ffffffffffffffffffffffffffffffffffffffff1663d21220a76040518163ffffffff1660e01b815260040160206040518083038186803b15801561025a57600080fd5b505afa15801561026e573d6000803e3d6000fd5b505050506040513d602081101561028457600080fd5b810190808051906020019092919050505090506102c27f00000000000000000000000000000000000000000000000000000000000000008383610c0b565b73ffffffffffffffffffffffffffffffffffffffff163373ffffffffffffffffffffffffffffffffffffffff1614610362576040517f08c379a000000000000000000000000000000000000000000000000000000000815260040180806020018281038252600c8152602001807f556e617574686f72697a6564000000000000000000000000000000000000000081525060200191505060405180910390fd5b60008a14806103715750600089145b61037a57600080fd5b60008a14610388578061038a565b815b8560008151811061039757fe5b602002602001019073ffffffffffffffffffffffffffffffffffffffff16908173ffffffffffffffffffffffffffffffffffffffff168152505060008a146103df57816103e1565b805b856001815181106103ee57fe5b602002602001019073ffffffffffffffffffffffffffffffffffffffff16908173ffffffffffffffffffffffffffffffffffffffff168152505060008a146104365781610438565b805b8460008151811061044557fe5b602002602001019073ffffffffffffffffffffffffffffffffffffffff16908173ffffffffffffffffffffffffffffffffffffffff168152505060008a1461048d578061048f565b815b8460018151811061049c57fe5b602002602001019073ffffffffffffffffffffffffffffffffffffffff16908173ffffffffffffffffffffffffffffffffffffffff16815250506000808b146104e557826104e7565b815b90506000808c146104f857826104fa565b835b90508173ffffffffffffffffffffffffffffffffffffffff1663095ea7b37f0000000000000000000000000000000000000000000000000000000000000000876040518363ffffffff1660e01b8152600401808373ffffffffffffffffffffffffffffffffffffffff16815260200182815260200192505050602060405180830381600087803b15801561058d57600080fd5b505af11580156105a1573d6000803e3d6000fd5b505050506040513d60208110156105b757600080fd5b81019080805190602001909291905050505060006105f67f0000000000000000000000000000000000000000000000000000000000000000878a610d24565b60008151811061060257fe5b6020026020010151905060007f000000000000000000000000000000000000000000000000000000000000000073ffffffffffffffffffffffffffffffffffffffff166338ed173988848b30639a7ec8006040518663ffffffff1660e01b815260040180868152602001858152602001806020018473ffffffffffffffffffffffffffffffffffffffff168152602001838152602001828103825285818151815260200191508051906020019060200280838360005b838110156106d35780820151818401526020810190506106b8565b505050509050019650505050505050600060405180830381600087803b1580156106fc57600080fd5b505af1158015610710573d6000803e3d6000fd5b505050506040513d6000823e3d601f19601f82011682018060405250602081101561073a57600080fd5b810190808051604051939291908464010000000082111561075a57600080fd5b8382019150602082018581111561077057600080fd5b825186602082028301116401000000008211171561078d57600080fd5b8083526020830192505050908051906020019060200280838360005b838110156107c45780820151818401526020810190506107a9565b505050509050016040525050506001815181106107dd57fe5b602002602001015190506108266040518060400160405280600f81526020017f416d6f756e74205265636569766564000000000000000000000000000000000081525082610ea4565b81811161082f57fe5b6108706040518060400160405280601081526020017f50726f6669742073686f756c6420626500000000000000000000000000000000815250838303610ea4565b60008373ffffffffffffffffffffffffffffffffffffffff166370a08231336040518263ffffffff1660e01b8152600401808273ffffffffffffffffffffffffffffffffffffffff16815260200191505060206040518083038186803b1580156108d957600080fd5b505afa1580156108ed573d6000803e3d6000fd5b505050506040513d602081101561090357600080fd5b810190808051906020019092919050505090506109556040518060400160405280601b81526020017f506172746e657220546f6b656e2042616c616e63652050616e676f000000000081525082610ea4565b8373ffffffffffffffffffffffffffffffffffffffff166370a08231306040518263ffffffff1660e01b8152600401808273ffffffffffffffffffffffffffffffffffffffff16815260200191505060206040518083038186803b1580156109bc57600080fd5b505afa1580156109d0573d6000803e3d6000fd5b505050506040513d60208110156109e657600080fd5b81019080805190602001909291905050509050610a386040518060400160405280601e81526020017f506172746e657220546f6b656e2042616c616e636520436f6e7472616374000081525082610ea4565b610a43843385610fab565b610a50848c858503610fab565b8373ffffffffffffffffffffffffffffffffffffffff166370a08231306040518263ffffffff1660e01b8152600401808273ffffffffffffffffffffffffffffffffffffffff16815260200191505060206040518083038186803b158015610ab757600080fd5b505afa158015610acb573d6000803e3d6000fd5b505050506040513d6020811015610ae157600080fd5b81019080805190602001909291905050509050610b166040518060600160405280602d8152602001611730602d913982610ea4565b8373ffffffffffffffffffffffffffffffffffffffff166370a082318c6040518263ffffffff1660e01b8152600401808273ffffffffffffffffffffffffffffffffffffffff16815260200191505060206040518083038186803b158015610b7d57600080fd5b505afa158015610b91573d6000803e3d6000fd5b505050506040513d6020811015610ba757600080fd5b81019080805190602001909291905050509050610bf96040518060400160405280601d81526020017f4d7920546f6b656e2042616c616e63652061667465722050726f66697400000081525082610ea4565b50505050505050505050505050505050565b6000806000610c1a858561118e565b91509150858282604051602001808373ffffffffffffffffffffffffffffffffffffffff1660601b81526014018273ffffffffffffffffffffffffffffffffffffffff1660601b8152601401925050506040516020818303038152906040528051906020012060405160200180807fff000000000000000000000000000000000000000000000000000000000000008152506001018373ffffffffffffffffffffffffffffffffffffffff1660601b8152601401828152602001807f40231f6b438bce0797c9ada29b718a87ea0a5cea3fe9a771abdd76bd41a3e545815250602001925050506040516020818303038152906040528051906020012060001c925050509392505050565b6060600282511015610d9e576040517f08c379a000000000000000000000000000000000000000000000000000000000815260040180806020018281038252601d8152602001807f50616e676f6c696e4c6962726172793a20494e56414c49445f5041544800000081525060200191505060405180910390fd5b815167ffffffffffffffff81118015610db657600080fd5b50604051908082528060200260200182016040528015610de55781602001602082028036833780820191505090505b5090508281600183510381518110610df957fe5b6020026020010181815250506000600183510390505b6000811115610e9c57600080610e4f87866001860381518110610e2e57fe5b6020026020010151878681518110610e4257fe5b6020026020010151611305565b91509150610e71848481518110610e6257fe5b6020026020010151838361142e565b846001850381518110610e8057fe5b6020026020010181815250505050808060019003915050610e0f565b509392505050565b610fa782826040516024018080602001838152602001828103825284818151815260200191508051906020019080838360005b83811015610ef2578082015181840152602081019050610ed7565b50505050905090810190601f168015610f1f5780820380516001836020036101000a031916815260200191505b5093505050506040516020818303038152906040527f9710a9d0000000000000000000000000000000000000000000000000000000007bffffffffffffffffffffffffffffffffffffffffffffffffffffffff19166020820180517bffffffffffffffffffffffffffffffffffffffffffffffffffffffff838183161783525050505061156b565b5050565b600060608473ffffffffffffffffffffffffffffffffffffffff1663a9059cbb8585604051602401808373ffffffffffffffffffffffffffffffffffffffff168152602001828152602001925050506040516020818303038152906040529060e01b6020820180517bffffffffffffffffffffffffffffffffffffffffffffffffffffffff83818316178352505050506040518082805190602001908083835b6020831061106e578051825260208201915060208101905060208303925061104b565b6001836020036101000a0380198251168184511680821785525050505050509050019150506000604051808303816000865af19150503d80600081146110d0576040519150601f19603f3d011682016040523d82523d6000602084013e6110d5565b606091505b50915091508180156111155750600081511480611114575080806020019051602081101561110257600080fd5b81019080805190602001909291905050505b5b611187576040517f08c379a000000000000000000000000000000000000000000000000000000000815260040180806020018281038252601f8152602001807f5472616e7366657248656c7065723a205452414e534645525f4641494c45440081525060200191505060405180910390fd5b5050505050565b6000808273ffffffffffffffffffffffffffffffffffffffff168473ffffffffffffffffffffffffffffffffffffffff161415611216576040517f08c379a000000000000000000000000000000000000000000000000000000000815260040180806020018281038252602481526020018061175d6024913960400191505060405180910390fd5b8273ffffffffffffffffffffffffffffffffffffffff168473ffffffffffffffffffffffffffffffffffffffff1610611250578284611253565b83835b8092508193505050600073ffffffffffffffffffffffffffffffffffffffff168273ffffffffffffffffffffffffffffffffffffffff1614156112fe576040517f08c379a000000000000000000000000000000000000000000000000000000000815260040180806020018281038252601d8152602001807f50616e676f6c696e4c6962726172793a205a45524f5f4144445245535300000081525060200191505060405180910390fd5b9250929050565b6000806000611314858561118e565b509050600080611325888888610c0b565b73ffffffffffffffffffffffffffffffffffffffff16630902f1ac6040518163ffffffff1660e01b815260040160606040518083038186803b15801561136a57600080fd5b505afa15801561137e573d6000803e3d6000fd5b505050506040513d606081101561139457600080fd5b81019080805190602001909291908051906020019092919080519060200190929190505050506dffffffffffffffffffffffffffff1691506dffffffffffffffffffffffffffff1691508273ffffffffffffffffffffffffffffffffffffffff168773ffffffffffffffffffffffffffffffffffffffff161461141857808261141b565b81815b8095508196505050505050935093915050565b6000808411611488576040517f08c379a000000000000000000000000000000000000000000000000000000000815260040180806020018281038252602b8152602001806117a8602b913960400191505060405180910390fd5b6000831180156114985750600082115b6114ed576040517f08c379a00000000000000000000000000000000000000000000000000000000081526004018080602001828103825260278152602001806117816027913960400191505060405180910390fd5b60006115166103e8611508878761159490919063ffffffff16565b61159490919063ffffffff16565b905060006115416103e5611533888761162990919063ffffffff16565b61159490919063ffffffff16565b9050611560600182848161155157fe5b046116ac90919063ffffffff16565b925050509392505050565b60008151905060006a636f6e736f6c652e6c6f679050602083016000808483855afa5050505050565b6000808214806115b157508282838502925082816115ae57fe5b04145b611623576040517f08c379a00000000000000000000000000000000000000000000000000000000081526004018080602001828103825260148152602001807f64732d6d6174682d6d756c2d6f766572666c6f7700000000000000000000000081525060200191505060405180910390fd5b92915050565b60008282840391508111156116a6576040517f08c379a00000000000000000000000000000000000000000000000000000000081526004018080602001828103825260158152602001807f64732d6d6174682d7375622d756e646572666c6f77000000000000000000000081525060200191505060405180910390fd5b92915050565b6000828284019150811015611729576040517f08c379a00000000000000000000000000000000000000000000000000000000081526004018080602001828103825260148152602001807f64732d6d6174682d6164642d6f766572666c6f7700000000000000000000000081525060200191505060405180910390fd5b9291505056fe436f6e747261637420546f6b656e2042616c616e63652061667465722050726f6669742077697468647261776e50616e676f6c696e4c6962726172793a204944454e544943414c5f41444452455353455350616e676f6c696e4c6962726172793a20494e53554646494349454e545f4c495155494449545950616e676f6c696e4c6962726172793a20494e53554646494349454e545f4f55545055545f414d4f554e54a2646970667358221220a21a6b61922fa5b32830a03ce79c951f3b987815998899279943f1e234ace7a364736f6c63430007000033",
  "devdoc": {
    "kind": "dev",
    "methods": {},
    "version": 1
  },
  "userdoc": {
    "kind": "user",
    "methods": {},
    "version": 1
  },
  "storageLayout": {
    "storage": [],
    "types": null
  }
}