{
  "address": "0x0DCd1Bf9A1b36cE34237eEaFef220932846BCD82",
  "abi": [
    {
      "inputs": [
        {
          "internalType": "address",
          "name": "factory_",
          "type": "address"
        }
      ],
      "stateMutability": "nonpayable",
      "type": "constructor"
    },
    {
      "inputs": [],
      "name": "factory",
      "outputs": [
        {
          "internalType": "address",
          "name": "",
          "type": "address"
        }
      ],
      "stateMutability": "view",
      "type": "function"
    },
    {
      "inputs": [
        {
          "internalType": "address",
          "name": "tokenA",
          "type": "address"
        },
        {
          "internalType": "address",
          "name": "tokenB",
          "type": "address"
        },
        {
          "internalType": "uint256",
          "name": "truePriceTokenA",
          "type": "uint256"
        },
        {
          "internalType": "uint256",
          "name": "truePriceTokenB",
          "type": "uint256"
        }
      ],
      "name": "getReservesAfterArbitrage",
      "outputs": [
        {
          "internalType": "uint256",
          "name": "reserveA",
          "type": "uint256"
        },
        {
          "internalType": "uint256",
          "name": "reserveB",
          "type": "uint256"
        }
      ],
      "stateMutability": "view",
      "type": "function"
    },
    {
      "inputs": [
        {
          "internalType": "address",
          "name": "token0",
          "type": "address"
        },
        {
          "internalType": "address",
          "name": "token1",
          "type": "address"
        },
        {
          "internalType": "uint256",
          "name": "amount0",
          "type": "uint256"
        },
        {
          "internalType": "uint256",
          "name": "amount1",
          "type": "uint256"
        }
      ],
      "name": "getReservesBeforeArbitrage",
      "outputs": [
        {
          "internalType": "uint256[]",
          "name": "reserves",
          "type": "uint256[]"
        }
      ],
      "stateMutability": "view",
      "type": "function"
    },
    {
      "inputs": [
        {
          "internalType": "address",
          "name": "token0",
          "type": "address"
        },
        {
          "internalType": "address",
          "name": "token1",
          "type": "address"
        },
        {
          "internalType": "uint256",
          "name": "amountIn",
          "type": "uint256"
        },
        {
          "internalType": "uint256",
          "name": "amountOutMin",
          "type": "uint256"
        }
      ],
      "name": "getReservesDuringArbitrage",
      "outputs": [
        {
          "internalType": "uint256[]",
          "name": "amounts",
          "type": "uint256[]"
        }
      ],
      "stateMutability": "view",
      "type": "function"
    }
  ],
  "transactionHash": "0xcf16458dc174f10a12f5ff710e418a01d2dd03e9b952e4a0feb830694473fe3c",
  "args": [
    "0x5FC8d32690cc91D4c39d9d3abcBD16989F875707"
  ],
  "solcInputHash": "da7503c5711f20d43febee6b6219618b",
  "bytecode": "0x60a060405234801561001057600080fd5b506040516116a23803806116a28339818101604052602081101561003357600080fd5b81019080805190602001909291905050508073ffffffffffffffffffffffffffffffffffffffff1660808173ffffffffffffffffffffffffffffffffffffffff1660601b815250505060805160601c6115fa6100a860003980610429528061046352806106ac52806106df52506115fa6000f3fe608060405234801561001057600080fd5b506004361061004c5760003560e01c806304ea0bdf146100515780633558e94c1461011e578063a85cdd3f146101b1578063c45a01551461027e575b600080fd5b6100c76004803603608081101561006757600080fd5b81019080803573ffffffffffffffffffffffffffffffffffffffff169060200190929190803573ffffffffffffffffffffffffffffffffffffffff16906020019092919080359060200190929190803590602001909291905050506102b2565b6040518080602001828103825283818151815260200191508051906020019060200280838360005b8381101561010a5780820151818401526020810190506100ef565b505050509050019250505060405180910390f35b6101946004803603608081101561013457600080fd5b81019080803573ffffffffffffffffffffffffffffffffffffffff169060200190929190803573ffffffffffffffffffffffffffffffffffffffff169060200190929190803590602001909291908035906020019092919050505061045b565b604051808381526020018281526020019250505060405180910390f35b610227600480360360808110156101c757600080fd5b81019080803573ffffffffffffffffffffffffffffffffffffffff169060200190929190803573ffffffffffffffffffffffffffffffffffffffff1690602001909291908035906020019092919080359060200190929190505050610565565b6040518080602001828103825283818151815260200191508051906020019060200280838360005b8381101561026a57808201518184015260208101905061024f565b505050509050019250505060405180910390f35b6102866106dd565b604051808273ffffffffffffffffffffffffffffffffffffffff16815260200191505060405180910390f35b606080600267ffffffffffffffff811180156102cd57600080fd5b506040519080825280602002602001820160405280156102fc5781602001602082028036833780820191505090505b509050600080851461030e5784610310565b835b905060008514806103215750600084145b610376576040517f08c379a00000000000000000000000000000000000000000000000000000000081526004018080602001828103825260308152602001806115196030913960400191505060405180910390fd5b600085146103845785610386565b865b8260008151811061039357fe5b602002602001019073ffffffffffffffffffffffffffffffffffffffff16908173ffffffffffffffffffffffffffffffffffffffff1681525050600085146103db57866103dd565b855b826001815181106103ea57fe5b602002602001019073ffffffffffffffffffffffffffffffffffffffff16908173ffffffffffffffffffffffffffffffffffffffff168152505061044f7f00000000000000000000000000000000000000000000000000000000000000008284610701565b92505050949350505050565b6000806104897f00000000000000000000000000000000000000000000000000000000000000008787610881565b80925081935050506000821180156104a15750600081115b6104f6576040517f08c379a00000000000000000000000000000000000000000000000000000000081526004018080602001828103825260298152602001806114cc6029913960400191505060405180910390fd5b600080610505868686866109aa565b91509150600081141561051957505061055c565b811561053e57600061052c828686610aa7565b90508185019450808403935050610559565b600061054b828587610aa7565b905081840193508085039450505b50505b94509492505050565b606080600267ffffffffffffffff8111801561058057600080fd5b506040519080825280602002602001820160405280156105af5781602001602082028036833780820191505090505b5090506000841180156105c25750600083115b610617576040517f08c379a00000000000000000000000000000000000000000000000000000000081526004018080602001828103825260298152602001806114cc6029913960400191505060405180910390fd5b858160008151811061062557fe5b602002602001019073ffffffffffffffffffffffffffffffffffffffff16908173ffffffffffffffffffffffffffffffffffffffff1681525050848160018151811061066d57fe5b602002602001019073ffffffffffffffffffffffffffffffffffffffff16908173ffffffffffffffffffffffffffffffffffffffff16815250506106d27f00000000000000000000000000000000000000000000000000000000000000008583610bd7565b915050949350505050565b7f000000000000000000000000000000000000000000000000000000000000000081565b606060028251101561077b576040517f08c379a000000000000000000000000000000000000000000000000000000000815260040180806020018281038252601d8152602001807f50616e676f6c696e4c6962726172793a20494e56414c49445f5041544800000081525060200191505060405180910390fd5b815167ffffffffffffffff8111801561079357600080fd5b506040519080825280602002602001820160405280156107c25781602001602082028036833780820191505090505b50905082816001835103815181106107d657fe5b6020026020010181815250506000600183510390505b60008111156108795760008061082c8786600186038151811061080b57fe5b602002602001015187868151811061081f57fe5b6020026020010151610881565b9150915061084e84848151811061083f57fe5b60200260200101518383610d4f565b84600185038151811061085d57fe5b60200260200101818152505050508080600190039150506107ec565b509392505050565b60008060006108908585610e8c565b5090506000806108a1888888611003565b73ffffffffffffffffffffffffffffffffffffffff16630902f1ac6040518163ffffffff1660e01b815260040160606040518083038186803b1580156108e657600080fd5b505afa1580156108fa573d6000803e3d6000fd5b505050506040513d606081101561091057600080fd5b81019080805190602001909291908051906020019092919080519060200190929190505050506dffffffffffffffffffffffffffff1691506dffffffffffffffffffffffffffff1691508273ffffffffffffffffffffffffffffffffffffffff168773ffffffffffffffffffffffffffffffffffffffff1614610994578082610997565b81815b8095508196505050505050935093915050565b600080856109b985878661111c565b10915060006109d184866111de90919063ffffffff16565b90506000610a28610a236109f06103e8856111de90919063ffffffff16565b866109fb57896109fd565b8a5b610a1e6103e589610a0e578d610a10565b8c5b6111de90919063ffffffff16565b61111c565b611273565b905060006103e585610a4e57610a496103e8886111de90919063ffffffff16565b610a64565b610a636103e8896111de90919063ffffffff16565b5b81610a6b57fe5b04905080821015610a855760008094509450505050610a9e565b610a9881836112d590919063ffffffff16565b93505050505b94509492505050565b6000808411610b01576040517f08c379a000000000000000000000000000000000000000000000000000000000815260040180806020018281038252602a815260200180611549602a913960400191505060405180910390fd5b600083118015610b115750600082115b610b66576040517f08c379a00000000000000000000000000000000000000000000000000000000081526004018080602001828103825260278152602001806115736027913960400191505060405180910390fd5b6000610b7d6103e5866111de90919063ffffffff16565b90506000610b9484836111de90919063ffffffff16565b90506000610bbf83610bb16103e8896111de90919063ffffffff16565b61135890919063ffffffff16565b9050808281610bca57fe5b0493505050509392505050565b6060600282511015610c51576040517f08c379a000000000000000000000000000000000000000000000000000000000815260040180806020018281038252601d8152602001807f50616e676f6c696e4c6962726172793a20494e56414c49445f5041544800000081525060200191505060405180910390fd5b815167ffffffffffffffff81118015610c6957600080fd5b50604051908082528060200260200182016040528015610c985781602001602082028036833780820191505090505b5090508281600081518110610ca957fe5b60200260200101818152505060005b6001835103811015610d4757600080610cfb87868581518110610cd757fe5b6020026020010151876001870181518110610cee57fe5b6020026020010151610881565b91509150610d1d848481518110610d0e57fe5b60200260200101518383610aa7565b846001850181518110610d2c57fe5b60200260200101818152505050508080600101915050610cb8565b509392505050565b6000808411610da9576040517f08c379a000000000000000000000000000000000000000000000000000000000815260040180806020018281038252602b81526020018061159a602b913960400191505060405180910390fd5b600083118015610db95750600082115b610e0e576040517f08c379a00000000000000000000000000000000000000000000000000000000081526004018080602001828103825260278152602001806115736027913960400191505060405180910390fd5b6000610e376103e8610e2987876111de90919063ffffffff16565b6111de90919063ffffffff16565b90506000610e626103e5610e5488876112d590919063ffffffff16565b6111de90919063ffffffff16565b9050610e816001828481610e7257fe5b0461135890919063ffffffff16565b925050509392505050565b6000808273ffffffffffffffffffffffffffffffffffffffff168473ffffffffffffffffffffffffffffffffffffffff161415610f14576040517f08c379a00000000000000000000000000000000000000000000000000000000081526004018080602001828103825260248152602001806114f56024913960400191505060405180910390fd5b8273ffffffffffffffffffffffffffffffffffffffff168473ffffffffffffffffffffffffffffffffffffffff1610610f4e578284610f51565b83835b8092508193505050600073ffffffffffffffffffffffffffffffffffffffff168273ffffffffffffffffffffffffffffffffffffffff161415610ffc576040517f08c379a000000000000000000000000000000000000000000000000000000000815260040180806020018281038252601d8152602001807f50616e676f6c696e4c6962726172793a205a45524f5f4144445245535300000081525060200191505060405180910390fd5b9250929050565b60008060006110128585610e8c565b91509150858282604051602001808373ffffffffffffffffffffffffffffffffffffffff1660601b81526014018273ffffffffffffffffffffffffffffffffffffffff1660601b8152601401925050506040516020818303038152906040528051906020012060405160200180807fff000000000000000000000000000000000000000000000000000000000000008152506001018373ffffffffffffffffffffffffffffffffffffffff1660601b8152601401828152602001807f40231f6b438bce0797c9ada29b718a87ea0a5cea3fe9a771abdd76bd41a3e545815250602001925050506040516020818303038152906040528051906020012060001c925050509392505050565b600080600061112b86866113db565b915091506000848061113957fe5b86880990508281111561114d576001820391505b80830392508482106111c7576040517f08c379a000000000000000000000000000000000000000000000000000000000815260040180806020018281038252601a8152602001807f46756c6c4d6174683a2046554c4c4449565f4f564552464c4f5700000000000081525060200191505060405180910390fd5b6111d283838761142e565b93505050509392505050565b6000808214806111fb57508282838502925082816111f857fe5b04145b61126d576040517f08c379a00000000000000000000000000000000000000000000000000000000081526004018080602001828103825260148152602001807f64732d6d6174682d6d756c2d6f766572666c6f7700000000000000000000000081525060200191505060405180910390fd5b92915050565b600060038211156112c257819050600060016002848161128f57fe5b040190505b818110156112bc578091506002818285816112ab57fe5b0401816112b457fe5b049050611294565b506112d0565b600082146112cf57600190505b5b919050565b6000828284039150811115611352576040517f08c379a00000000000000000000000000000000000000000000000000000000081526004018080602001828103825260158152602001807f64732d6d6174682d7375622d756e646572666c6f77000000000000000000000081525060200191505060405180910390fd5b92915050565b60008282840191508110156113d5576040517f08c379a00000000000000000000000000000000000000000000000000000000081526004018080602001828103825260148152602001807f64732d6d6174682d6164642d6f766572666c6f7700000000000000000000000081525060200191505060405180910390fd5b92915050565b60008060007fffffffffffffffffffffffffffffffffffffffffffffffffffffffffffffffff8061140857fe5b84860990508385029250828103915082811015611426576001820391505b509250929050565b600080826000038316905080838161144257fe5b04925080858161144e57fe5b049450600181826000038161145f57fe5b0401840285019450600060019050808402600203810290508084026002038102905080840260020381029050808402600203810290508084026002038102905080840260020381029050808402600203810290508084026002038102905080860292505050939250505056fe50616e676f4172626974726167654c6962726172793a205a45524f5f504149525f524553455256455350616e676f6c696e4c6962726172793a204944454e544943414c5f41444452455353455350616e676f4172626974726167654c6962726172793a204f4e455f4d414e4441544f52595f5a45524f5f414d4f554e5450616e676f6c696e4c6962726172793a20494e53554646494349454e545f494e5055545f414d4f554e5450616e676f6c696e4c6962726172793a20494e53554646494349454e545f4c495155494449545950616e676f6c696e4c6962726172793a20494e53554646494349454e545f4f55545055545f414d4f554e54a26469706673582212201d8afd4f487fbe43eac3967648536557c5f2dddfe710d04cbf6f60739e1ac57764736f6c63430007000033",
  "devdoc": {
    "kind": "dev",
    "methods": {},
    "version": 1
  },
  "userdoc": {
    "kind": "user",
    "methods": {},
    "version": 1
  },
  "storageLayout": {
    "storage": [],
    "types": null
  }
}