{
  "address": "0x9A676e781A523b5d0C0e43731313A708CB607508",
  "abi": [
    {
      "inputs": [
        {
          "internalType": "address",
          "name": "factory_",
          "type": "address"
        }
      ],
      "stateMutability": "nonpayable",
      "type": "constructor"
    },
    {
      "inputs": [],
      "name": "factory",
      "outputs": [
        {
          "internalType": "address",
          "name": "",
          "type": "address"
        }
      ],
      "stateMutability": "view",
      "type": "function"
    },
    {
      "inputs": [
        {
          "internalType": "address",
          "name": "tokenA",
          "type": "address"
        },
        {
          "internalType": "address",
          "name": "tokenB",
          "type": "address"
        },
        {
          "internalType": "uint256",
          "name": "truePriceTokenA",
          "type": "uint256"
        },
        {
          "internalType": "uint256",
          "name": "truePriceTokenB",
          "type": "uint256"
        }
      ],
      "name": "getReservesAfterArbitrage",
      "outputs": [
        {
          "internalType": "uint256",
          "name": "reserveA",
          "type": "uint256"
        },
        {
          "internalType": "uint256",
          "name": "reserveB",
          "type": "uint256"
        }
      ],
      "stateMutability": "view",
      "type": "function"
    },
    {
      "inputs": [
        {
          "internalType": "address",
          "name": "token0",
          "type": "address"
        },
        {
          "internalType": "address",
          "name": "token1",
          "type": "address"
        },
        {
          "internalType": "uint256",
          "name": "amount0",
          "type": "uint256"
        },
        {
          "internalType": "uint256",
          "name": "amount1",
          "type": "uint256"
        }
      ],
      "name": "getReservesBeforeArbitrage",
      "outputs": [
        {
          "internalType": "uint256[]",
          "name": "reserves",
          "type": "uint256[]"
        }
      ],
      "stateMutability": "view",
      "type": "function"
    },
    {
      "inputs": [
        {
          "internalType": "address",
          "name": "token0",
          "type": "address"
        },
        {
          "internalType": "address",
          "name": "token1",
          "type": "address"
        },
        {
          "internalType": "uint256",
          "name": "amountIn",
          "type": "uint256"
        },
        {
          "internalType": "uint256",
          "name": "amountOutMin",
          "type": "uint256"
        }
      ],
      "name": "getReservesDuringArbitrage",
      "outputs": [
        {
          "internalType": "uint256[]",
          "name": "amounts",
          "type": "uint256[]"
        }
      ],
      "stateMutability": "view",
      "type": "function"
    }
  ],
  "transactionHash": "0x5ed32ae8b96511ae82aa7cdb8cc28f17c4986003fa2a0b56a7bc6241842aa81f",
  "args": [
    "0x0165878A594ca255338adfa4d48449f69242Eb8F"
  ],
  "solcInputHash": "b3f96b1003d8fd8d4c704b662092e50a",
  "bytecode": "0x60a060405234801561001057600080fd5b506040516118cf3803806118cf8339818101604052602081101561003357600080fd5b81019080805190602001909291905050508073ffffffffffffffffffffffffffffffffffffffff1660808173ffffffffffffffffffffffffffffffffffffffff1660601b815250505060805160601c6118276100a86000398061043f528061047952806106c8528061076b52506118276000f3fe608060405234801561001057600080fd5b506004361061004c5760003560e01c806304ea0bdf146100515780633558e94c1461011e578063a85cdd3f146101b1578063c45a01551461027e575b600080fd5b6100c76004803603608081101561006757600080fd5b81019080803573ffffffffffffffffffffffffffffffffffffffff169060200190929190803573ffffffffffffffffffffffffffffffffffffffff16906020019092919080359060200190929190803590602001909291905050506102c8565b6040518080602001828103825283818151815260200191508051906020019060200280838360005b8381101561010a5780820151818401526020810190506100ef565b505050509050019250505060405180910390f35b6101946004803603608081101561013457600080fd5b81019080803573ffffffffffffffffffffffffffffffffffffffff169060200190929190803573ffffffffffffffffffffffffffffffffffffffff1690602001909291908035906020019092919080359060200190929190505050610471565b604051808381526020018281526020019250505060405180910390f35b610227600480360360808110156101c757600080fd5b81019080803573ffffffffffffffffffffffffffffffffffffffff169060200190929190803573ffffffffffffffffffffffffffffffffffffffff1690602001909291908035906020019092919080359060200190929190505050610581565b6040518080602001828103825283818151815260200191508051906020019060200280838360005b8381101561026a57808201518184015260208101905061024f565b505050509050019250505060405180910390f35b610286610769565b604051808273ffffffffffffffffffffffffffffffffffffffff1673ffffffffffffffffffffffffffffffffffffffff16815260200191505060405180910390f35b606080600267ffffffffffffffff811180156102e357600080fd5b506040519080825280602002602001820160405280156103125781602001602082028036833780820191505090505b50905060008085146103245784610326565b835b905060008514806103375750600084145b61038c576040517f08c379a000000000000000000000000000000000000000000000000000000000815260040180806020018281038252603481526020018061175e6034913960400191505060405180910390fd5b6000851461039a578561039c565b865b826000815181106103a957fe5b602002602001019073ffffffffffffffffffffffffffffffffffffffff16908173ffffffffffffffffffffffffffffffffffffffff1681525050600085146103f157866103f3565b855b8260018151811061040057fe5b602002602001019073ffffffffffffffffffffffffffffffffffffffff16908173ffffffffffffffffffffffffffffffffffffffff16815250506104657f0000000000000000000000000000000000000000000000000000000000000000828461078d565b92505050949350505050565b60008061049f7f0000000000000000000000000000000000000000000000000000000000000000878761090d565b80925081935050506000821180156104b75750600081115b61050c576040517f08c379a000000000000000000000000000000000000000000000000000000000815260040180806020018281038252602d8152602001806116b8602d913960400191505060405180910390fd5b60008061051b86868686610a36565b915091506000811415610535578383935093505050610578565b811561055a576000610548828686610b36565b90508185019450808403935050610575565b6000610567828587610b36565b905081840193508085039450505b50505b94509492505050565b606080600267ffffffffffffffff8111801561059c57600080fd5b506040519080825280602002602001820160405280156105cb5781602001602082028036833780820191505090505b5090506000841180156105de5750600083115b610633576040517f08c379a000000000000000000000000000000000000000000000000000000000815260040180806020018281038252602d8152602001806116b8602d913960400191505060405180910390fd5b858160008151811061064157fe5b602002602001019073ffffffffffffffffffffffffffffffffffffffff16908173ffffffffffffffffffffffffffffffffffffffff1681525050848160018151811061068957fe5b602002602001019073ffffffffffffffffffffffffffffffffffffffff16908173ffffffffffffffffffffffffffffffffffffffff16815250506106ee7f00000000000000000000000000000000000000000000000000000000000000008583610c66565b9150828260018451038151811061070157fe5b60200260200101511015610760576040517f08c379a00000000000000000000000000000000000000000000000000000000081526004018080602001828103825260358152602001806117926035913960400191505060405180910390fd5b50949350505050565b7f000000000000000000000000000000000000000000000000000000000000000081565b6060600282511015610807576040517f08c379a000000000000000000000000000000000000000000000000000000000815260040180806020018281038252601e8152602001807f556e697377617056324c6962726172793a20494e56414c49445f50415448000081525060200191505060405180910390fd5b815167ffffffffffffffff8111801561081f57600080fd5b5060405190808252806020026020018201604052801561084e5781602001602082028036833780820191505090505b509050828160018351038151811061086257fe5b6020026020010181815250506000600183510390505b6000811115610905576000806108b88786600186038151811061089757fe5b60200260200101518786815181106108ab57fe5b602002602001015161090d565b915091506108da8484815181106108cb57fe5b60200260200101518383610dde565b8460018503815181106108e957fe5b6020026020010181815250505050808060019003915050610878565b509392505050565b600080600061091c8585610f1b565b50905060008061092d888888611092565b73ffffffffffffffffffffffffffffffffffffffff16630902f1ac6040518163ffffffff1660e01b815260040160606040518083038186803b15801561097257600080fd5b505afa158015610986573d6000803e3d6000fd5b505050506040513d606081101561099c57600080fd5b81019080805190602001909291908051906020019092919080519060200190929190505050506dffffffffffffffffffffffffffff1691506dffffffffffffffffffffffffffff1691508273ffffffffffffffffffffffffffffffffffffffff168773ffffffffffffffffffffffffffffffffffffffff1614610a20578082610a23565b81815b8095508196505050505050935093915050565b60008085610a458587866111ed565b1091506000610a5d84866112af90919063ffffffff16565b90506000610ab4610aaf610a7c6103e8856112af90919063ffffffff16565b86610a875789610a89565b8a5b610aaa6103e589610a9a578d610a9c565b8c5b6112af90919063ffffffff16565b6111ed565b611344565b905060006103e585610ada57610ad56103e8886112af90919063ffffffff16565b610af0565b610aef6103e8896112af90919063ffffffff16565b5b81610af757fe5b04905080821015610b145760008080905094509450505050610b2d565b610b2781836114c190919063ffffffff16565b93505050505b94509492505050565b6000808411610b90576040517f08c379a000000000000000000000000000000000000000000000000000000000815260040180806020018281038252602b8152602001806117c7602b913960400191505060405180910390fd5b600083118015610ba05750600082115b610bf5576040517f08c379a00000000000000000000000000000000000000000000000000000000081526004018080602001828103825260288152602001806117366028913960400191505060405180910390fd5b6000610c0c6103e5866112af90919063ffffffff16565b90506000610c2384836112af90919063ffffffff16565b90506000610c4e83610c406103e8896112af90919063ffffffff16565b61154490919063ffffffff16565b9050808281610c5957fe5b0493505050509392505050565b6060600282511015610ce0576040517f08c379a000000000000000000000000000000000000000000000000000000000815260040180806020018281038252601e8152602001807f556e697377617056324c6962726172793a20494e56414c49445f50415448000081525060200191505060405180910390fd5b815167ffffffffffffffff81118015610cf857600080fd5b50604051908082528060200260200182016040528015610d275781602001602082028036833780820191505090505b5090508281600081518110610d3857fe5b60200260200101818152505060005b6001835103811015610dd657600080610d8a87868581518110610d6657fe5b6020026020010151876001870181518110610d7d57fe5b602002602001015161090d565b91509150610dac848481518110610d9d57fe5b60200260200101518383610b36565b846001850181518110610dbb57fe5b60200260200101818152505050508080600101915050610d47565b509392505050565b6000808411610e38576040517f08c379a000000000000000000000000000000000000000000000000000000000815260040180806020018281038252602c8152602001806116e5602c913960400191505060405180910390fd5b600083118015610e485750600082115b610e9d576040517f08c379a00000000000000000000000000000000000000000000000000000000081526004018080602001828103825260288152602001806117366028913960400191505060405180910390fd5b6000610ec66103e8610eb887876112af90919063ffffffff16565b6112af90919063ffffffff16565b90506000610ef16103e5610ee388876114c190919063ffffffff16565b6112af90919063ffffffff16565b9050610f106001828481610f0157fe5b0461154490919063ffffffff16565b925050509392505050565b6000808273ffffffffffffffffffffffffffffffffffffffff168473ffffffffffffffffffffffffffffffffffffffff161415610fa3576040517f08c379a00000000000000000000000000000000000000000000000000000000081526004018080602001828103825260258152602001806117116025913960400191505060405180910390fd5b8273ffffffffffffffffffffffffffffffffffffffff168473ffffffffffffffffffffffffffffffffffffffff1610610fdd578284610fe0565b83835b8092508193505050600073ffffffffffffffffffffffffffffffffffffffff168273ffffffffffffffffffffffffffffffffffffffff16141561108b576040517f08c379a000000000000000000000000000000000000000000000000000000000815260040180806020018281038252601e8152602001807f556e697377617056324c6962726172793a205a45524f5f41444452455353000081525060200191505060405180910390fd5b9250929050565b60008060006110a18585610f1b565b91509150858282604051602001808373ffffffffffffffffffffffffffffffffffffffff1673ffffffffffffffffffffffffffffffffffffffff1660601b81526014018273ffffffffffffffffffffffffffffffffffffffff1673ffffffffffffffffffffffffffffffffffffffff1660601b8152601401925050506040516020818303038152906040528051906020012060405160200180807fff000000000000000000000000000000000000000000000000000000000000008152506001018373ffffffffffffffffffffffffffffffffffffffff1673ffffffffffffffffffffffffffffffffffffffff1660601b8152601401828152602001807f96e8ac4277198ff8b6f785478aa9a39f403cb768dd02cbee326c3e7da348845f815250602001925050506040516020818303038152906040528051906020012060001c925050509392505050565b60008060006111fc86866115c7565b915091506000848061120a57fe5b86880990508281111561121e576001820391505b8083039250848210611298576040517f08c379a000000000000000000000000000000000000000000000000000000000815260040180806020018281038252601a8152602001807f46756c6c4d6174683a2046554c4c4449565f4f564552464c4f5700000000000081525060200191505060405180910390fd5b6112a383838761161a565b93505050509392505050565b6000808214806112cc57508282838502925082816112c957fe5b04145b61133e576040517f08c379a00000000000000000000000000000000000000000000000000000000081526004018080602001828103825260148152602001807f64732d6d6174682d6d756c2d6f766572666c6f7700000000000000000000000081525060200191505060405180910390fd5b92915050565b60008082141561135757600090506114bc565b6000829050600060019050700100000000000000000000000000000000821061138957608082901c9150604081901b90505b6801000000000000000082106113a857604082901c9150602081901b90505b64010000000082106113c357602082901c9150601081901b90505b6201000082106113dc57601082901c9150600881901b90505b61010082106113f457600882901c9150600481901b90505b6010821061140b57600482901c9150600281901b90505b6008821061141b57600181901b90505b600181858161142657fe5b048201901c9050600181858161143857fe5b048201901c9050600181858161144a57fe5b048201901c9050600181858161145c57fe5b048201901c9050600181858161146e57fe5b048201901c9050600181858161148057fe5b048201901c9050600181858161149257fe5b048201901c905060008185816114a457fe5b0490508082106114b457806114b6565b815b93505050505b919050565b600082828403915081111561153e576040517f08c379a00000000000000000000000000000000000000000000000000000000081526004018080602001828103825260158152602001807f64732d6d6174682d7375622d756e646572666c6f77000000000000000000000081525060200191505060405180910390fd5b92915050565b60008282840191508110156115c1576040517f08c379a00000000000000000000000000000000000000000000000000000000081526004018080602001828103825260148152602001807f64732d6d6174682d6164642d6f766572666c6f7700000000000000000000000081525060200191505060405180910390fd5b92915050565b60008060007fffffffffffffffffffffffffffffffffffffffffffffffffffffffffffffffff806115f457fe5b84860990508385029250828103915082811015611612576001820391505b509250929050565b600080826000038316905080838161162e57fe5b04925080858161163a57fe5b049450600181826000038161164b57fe5b0401840285019450600060019050808402600203810290508084026002038102905080840260020381029050808402600203810290508084026002038102905080840260020381029050808402600203810290508084026002038102905080860292505050939250505056fe556e697377617056324172626974726167654c6962726172793a205a45524f5f504149525f5245534552564553556e697377617056324c6962726172793a20494e53554646494349454e545f4f55545055545f414d4f554e54556e697377617056324c6962726172793a204944454e544943414c5f414444524553534553556e697377617056324c6962726172793a20494e53554646494349454e545f4c4951554944495459556e697377617056324172626974726167654c6962726172793a204f4e455f4d414e4441544f52595f5a45524f5f414d4f554e54556e697377617056324172626974726167654c6962726172793a20494e53554646494349454e545f4f55545055545f414d4f554e54556e697377617056324c6962726172793a20494e53554646494349454e545f494e5055545f414d4f554e54a26469706673582212203fe645f3eea855e8591b48456a699d36affdb1f45f4a7e1e39b2482754c28dce64736f6c63430006060033",
  "devdoc": {
    "methods": {}
  },
  "userdoc": {
    "methods": {}
  },
  "storageLayout": {
    "storage": [],
    "types": null
  }
}